:100000000C94801A0C94B11A0C94B11A0C94B11A75
:100010000C94B11A0C94B11A0C94B11A0C94B11A34
:100020000C94B11A0C94B11A0C94B11A0C94B11A24
:100030000C94B11A0C94B11A0C94B11A0C940D30A2
:100040000C94B11A0C94B11A0C94B11A0C94B11A04
:100050000C94B11A0C94B11A0C94B11A0C943F2E52
:100060000C94B11A0C94B32E0C94892E0C94B11AE2
:100070000C94B11A0C94B11A0C94B11A0C94B11AD4
:100080000C94B11A0C94B11A0C94B11A0C94B11AC4
:100090000C94B11A0C94B11A0C94B11A0C94E92E68
:1000A0000C94B11A0C94B11A0C94B11A0C94B11AA4
:1000B0000C94B11A0C94B11A0C94B11A0C94B11A94
:1000C0000C94B11A0C94B11A0C94B11A0C94B11A84
:1000D0000C94B11A0C94B11A0C94B11A0C94B11A74
:1000E0000C94B11A0C9492230C94131B0C94921F31
:1000F0000C94FB250C9465240C94F11A0C9459244F
:100100000C94FF1A0C94FB1A0C949E220C94E41A83
:100110000C94901E0C94C5280C944C1C0C94F71A4B
:100120000C940D1B0C94121B0C94291C0C94B31AE8
:100130000C94D9240C94E01A0C945A1C0C94DF1CD7
:100140000C94D81A0C94D71E0C94FD220C94DC1A33
:100150000C94921C0C94471E0C9449240C946F2808
:100160000C94CC210C9471240C94D21A0C94C828B1
:100170000C94FC1B0C9415260C94171B0C94091B57
:100180000C94E71A0C940E260C9495300C9485254B
:100190000C9475230C94EC250C94FA1B0C944226B9
:1001A0000C94ED1A0C9483300C94381C0C94FB1BAB
:1001B0000C94051B0000000000000000000000007F
:1001C000000000000000000000000000000000002F
:1001D0000000000000003F80018001800300060055
:1001E0000C003000000000000000000000000000D3
:1001F0000000000000003F800D800D800D801B007E
:1002000036006C000000000000000000000000004C
:1002100000000000000030003000300030003000EE
:1002200030003F80000000000000000000000000DF
:100230000000000000003F003000300030003000BF
:1002400030003F80000000000000000000000000BF
:100250000000000000003F80360036003600360007
:1002600036003F8000000000000000000000000099
:100270000000000000003F00030003003F003000CA
:1002800030003F800000000000000000000000007F
:100290000000000000007F00630063006300630053
:1002A00063007F000000000000000000000000006C
:1002B0000000000000006300630063007F00630033
:1002C00063007F000000000000000000000000004C
:1002D0000000000000006D806D806D807F806D806B
:1002E0006D807F8000000000000000000000000022
:1002F0000000000000000C000C000C000C001E00B0
:1003000033006180000000000000000000000000D9
:1003100000000000000036003600360036003E00C7
:100320006F00D98000000000000000000000000005
:100330000000000000001E003300618061806180C9
:1003400033001E000000000000000000000000005C
:100350000000000000007F800C000C000C001E005C
:100360003300618000000000000000000000000079
:100370000000000000007F00360036003600360026
:100380006F00D980000000000000000000000000A5
:100390000000000000000C007F800C000C000C002E
:1003A0001E0033006180000000000000000000001B
:1003B0000000000000003F00030003003E000C00AE
:1003C00018006000000000000000000000000000B5
:1003D0000000000000003F00300030003E00300010
:1003E00030003F800000000000000000000000001E
:1003F0000000000000007F003600360036003600A6
:1004000036007F0000000000000000000000000037
:10041000000000000C007F801E00330061806180BE
:1004200033001E000000000000000000000000007B
:1004300000000000000000000000000000000000BC
:1004400000000000000000000000000000000000AC
:100450000000000000001FF8001800180018001825
:10046000003000000000000000000000000000005C
:100470000000000000001F78031803180318031879
:100480000630000000000000000000000000000036
:1004900000000000000018001800180018001800E4
:1004A0001FF8000000000000000000000000000035
:1004B0000000000000001FF81800180018001800C5
:1004C0001FF8000000000000000000000000000015
:1004D0000000000000001EF818C018C018C018C0A6
:1004E0001EF80000000000000000000000000000F6
:1004F0000000000000001FF800181FF81800180086
:100500001FF80000000000000000000000000000D4
:100510000000000000001FF8181818181818181804
:100520001FF80000000000000000000000000000B4
:10053000000000000000181818181FF818181818E4
:100540001FF8000000000000000000000000000094
:10055000000000000000199819981FF819981998C0
:100560001FF8000000000000000000000000000074
:100570000000000000000180018003C006600C3014
:10058000300C00000000000000000000000000002F
:1005900000000000000006C006C006C00FE01B30CF
:1005A000360C000000000000000000000000000009
:1005B00000000000000007C00C60183018300C600C
:1005C00007C0000000000000000000000000000064
:1005D0000000000000001FF8018003C006600C301E
:1005E00018180000000000000000000000000000DB
:1005F0000000000000003FFC0660066006600DF091
:10060000330C0000000000000000000000000000AB
:100610000000000001801FF8018003C006600C305C
:10062000181800000000000000000000000000009A
:100630000000000000001FF800180FF80018001854
:10064000003000000000000000000000000000007A
:100650000000000000001FF818001FF81800180024
:100660001FF8000000000000000000000000000073
:100670000000000000001FF80660066006600660CB
:100680001FF8000000000000000000000000000053
:100690000000000001801FF807E00C3018180C3033
:1006A00007E0000000000000000000000000000063
:1006B000000000000000000000000000000000003A
:1006C000000000000000000000000000000000002A
:1006D0000000000000001FF800180018001800308B
:1006E000000000000000000000000000000000000A
:1006F0000000000000001F780318031803180630DC
:1007000000000000000000000000000000000000E9
:1007100000000000000018001800180018001FF862
:1007200000000000000000000000000000000000C9
:100730000000000000001FF81800180018001FF843
:1007400000000000000000000000000000000000A9
:100750000000000000001EF818C018C018C01EF8E5
:100760000000000000000000000000000000000089
:100770000000000000001FF800181FF818001FF804
:100780000000000000000000000000000000000069
:100790000000000000001FF81818181818181FF89B
:1007A0000000000000000000000000000000000049
:1007B000000000000000181818181FF818181FF87B
:1007C0000000000000000000000000000000000029
:1007D000000000000000199819981FF819981FF8D8
:1007E0000000000000000000000000000000000009
:1007F0000000000000000180018003C0066018189E
:1008000000000000000000000000000000000000E8
:1008100000000000000006C006C00FE01B303618C4
:1008200000000000000000000000000000000000C8
:1008300000000000000007E01C3818181C3807E012
:1008400000000000000000000000000000000000A8
:100850000000000000001FF8018003C006601818A7
:100860000000000000000000000000000000000088
:100870000000000000001FF8066006600FF01998E5
:100880000000000000000000000000000000000068
:100890000000000001801FF8018003C006601818E6
:1008A0000000000000000000000000000000000048
:1008B0000000000000001FF800180FF800180030BA
:1008C0000000000000000000000000000000000028
:1008D0000000000000001FF81C001FF01C001FF8A3
:1008E0000000000000000000000000000000000008
:1008F0000000000000001FF80660066006601FF898
:1009000000000000000000000000000000000000E7
:100910000000000001801FF807E00C300C3007E0F9
:1009200000000000000000000000000000000000C7
:1009300000000000000000000000000000000000B7
:1009400000000000000000000000000000000000A7
:100950000000000000003F80018001800180030052
:100960000000000000000000000000000000000087
:100970000000000000007F8019801980198033007A
:100980000000000000000000000000000000000067
:1009900000000000000030003000300030003F80D8
:1009A0000000000000000000000000000000000047
:1009B0000000000000003F803000300030003F8029
:1009C0000000000000000000000000000000000027
:1009D00000000000000077806600660066007780F7
:1009E0000000000000000000000000000000000007
:1009F0000000000000003F8001803F8030003F8009
:100A000000000000000000000000000000000000E6
:100A10000000000000003F803180318031803F8045
:100A200000000000000000000000000000000000C6
:100A3000000000000000318031803F8031803F8025
:100A400000000000000000000000000000000000A6
:100A50000000000000006D806D807F806D807F80D1
:100A60000000000000000000000000000000000086
:100A70000000000000000C000C001E00330061802C
:100A80000000000000000000000000000000000066
:100A9000000000000000360036003E006F00D980E4
:100AA0000000000000000000000000000000000046
:100AB0000000000000001E003300618033001E00B3
:100AC0000000000000000000000000000000000026
:100AD0000000000000003F000C001E003300618099
:100AE0000000000000000000000000000000000006
:100AF0000000000000003F801B001B003F806CC016
:100B000000000000000000000000000000000000E5
:100B1000000000000C003F000C001E00330061804C
:100B200000000000000000000000000000000000C5
:100B30000000000000003F8001803F800180030032
:100B400000000000000000000000000000000000A5
:100B50000000000000003F8030003F8030003F80F8
:100B60000000000000000000000000000000000085
:100B70000000000000007F803300330033007F80DE
:100B80000000000000000000000000000000000065
:100B9000000000000C007F801E00330033001E00A8
:100BA0000000000000000000000000000000000045
:100BB0000000000000000000000000000000000035
:100BC0000000000000000000000000000000000025
:100BD0000000000000003F800180018001800300D0
:100BE0000000000000000000000000000000000005
:100BF0000000000000007F801980198019803300F8
:100C000000000000000000000000000000000000E4
:100C100000000000000030003000300030003F8055
:100C200000000000000000000000000000000000C4
:100C30000000000000003F803000300030003F80A6
:100C400000000000000000000000000000000000A4
:100C50000000000000007780660066006600778074
:100C60000000000000000000000000000000000084
:100C70000000000000003F8001803F8030003F8086
:100C80000000000000000000000000000000000064
:100C90000000000000003F803180318031803F80C3
:100CA0000000000000000000000000000000000044
:100CB000000000000000318031803F8031803F80A3
:100CC0000000000000000000000000000000000024
:100CD0000000000000006D806D807F806D807F804F
:100CE0000000000000000000000000000000000004
:100CF0000000000000000C000C001E0033006180AA
:100D000000000000000000000000000000000000E3
:100D1000000000000000360036003E006F00D98061
:100D200000000000000000000000000000000000C3
:100D30000000000000001E003300618033001E0030
:100D400000000000000000000000000000000000A3
:100D50000000000000003F000C001E003300618016
:100D60000000000000000000000000000000000083
:100D70000000000000003F801B001B003F806CC093
:100D80000000000000000000000000000000000063
:100D9000000000000C003F000C001E0033006180CA
:100DA0000000000000000000000000000000000043
:100DB0000000000000003F8001803F8001800300B0
:100DC0000000000000000000000000000000000023
:100DD0000000000000003F8030003F8030003F8076
:100DE0000000000000000000000000000000000003
:100DF0000000000000007F803300330033007F805C
:100E000000000000000000000000000000000000E2
:100E1000000000000C007F801E00330033001E0025
:100E200000000000000000000000000000000000C2
:100E300000000000000000000000000000000000B2
:100E400000000000000000000000000000000000A2
:100E50000000000000003F800180030006000C003D
:100E60003000000000000000000000000000000052
:100E70000000000000007F80198019801980330075
:100E800066000000000000000000000000000000FC
:100E90000000000000003000300030003000300062
:100EA0003F80000000000000000000000000000083
:100EB0000000000000003F803000300030003000B3
:100EC0003F80000000000000000000000000000063
:100ED0000000000000007780660066006600660083
:100EE000778000000000000000000000000000000B
:100EF0000000000000003F8001803F803000300093
:100F00003F80000000000000000000000000000022
:100F10000000000000003F8031803180318031804E
:100F20003F80000000000000000000000000000002
:100F3000000000000000318031803F80318031802E
:100F40003F800000000000000000000000000000E2
:100F50000000000000006D806D807F806D806D80DE
:100F60007F80000000000000000000000000000082
:100F70000000000000000C000C000C001E003300FC
:100F80006180000000000000000000000000000080
:100F90000000000000003600360036003E006F0002
:100FA000D9800000000000000000000000000000E8
:100FB0000000000000001E003300618061803300EB
:100FC0001E00000000000000000000000000000003
:100FD0000000000000003F000C000C001E00330069
:100FE0006180000000000000000000000000000020
:100FF0000000000000003F801B001B001B003F8022
:101000006CC00000000000000000000000000000B4
:10101000000000000C003F000C000C001E0033001C
:1010200061800000000000000000000000000000DF
:101030000000000000003F8001803F8001800180AF
:10104000030000000000000000000000000000009D
:101050000000000000003F8030003F803000300082
:101060003F800000000000000000000000000000C1
:101070000000000000007F803300330033003300A5
:101080007F80000000000000000000000000000061
:10109000000000000C007F801E00330061803300E0
:1010A0001E00000000000000000000000000000022
:1010B0000000000000000000000000000000000030
:1010C0000000000000000000000000000000000020
:1010D0000000000000000FF0003000300030006021
:1010E0000000000000000000000000000000000000
:1010F0000000000000000FF00330033003300660F2
:1011000000000000000000000000000000000000DF
:101110000000000000000C000C000C000C000FF0A0
:1011200000000000000000000000000000000000BF
:101130000000000000000FF00C000C000C000FF08D
:10114000000000000000000000000000000000009F
:101150000000000000000EF00CC00CC00CC00EF02F
:10116000000000000000000000000000000000007F
:101170000000000000000FF000300FF00C000FF036
:10118000000000000000000000000000000000005F
:101190000000000000000FF00C300C300C300FF09D
:1011A000000000000000000000000000000000003F
:1011B0000000000000000C300C300FF00C300FF07D
:1011C000000000000000000000000000000000001F
:1011D0000000000000000DB00DB00FF00DB00FF0DA
:1011E00000000000000000000000000000000000FF
:1011F00000000000000001800180018003C00C306D
:1012000000000000000000000000000000000000DE
:1012100000000000000006C006C007C00DE01B3043
:1012200000000000000000000000000000000000BE
:1012300000000000000007E00C300C300C3007E02C
:10124000000000000000000000000000000000009E
:101250000000000000000FF0018003C006601818B5
:10126000000000000000000000000000000000007E
:101270000000000000000FF00360036007E0199811
:10128000000000000000000000000000000000005E
:101290000000000001800FF0018003C006601818F4
:1012A000000000000000000000000000000000003E
:1012B0000000000000000FF000300FF00030006070
:1012C000000000000000000000000000000000001E
:1012D0000000000000000FF00C000FF00C000FF0F9
:1012E00000000000000000000000000000000000FE
:1012F0000000000000000FF00660066006600FF0BE
:1013000000000000000000000000000000000000DD
:101310000000000001800FF007E00C300C3007E007
:1013200000000000000000000000000000000000BD
:1013300000000000000000000000000000000000AD
:10134000000000000000000000000000000000009D
:101350000000000000003F800180018003000000C9
:10136000000000000000000000000000000000007D
:101370000000000000007F80198019803300000009
:10138000000000000000000000000000000000005D
:101390000000000000003000300030003F800000FE
:1013A000000000000000000000000000000000003D
:1013B0000000000000003F80300030003F8000004F
:1013C000000000000000000000000000000000001D
:1013D0000000000000007780660066007780000053
:1013E00000000000000000000000000000000000FD
:1013F0000000000000003F8007803C003F800000AC
:1014000000000000000000000000000000000000DC
:101410000000000000003F80318031803F800000EC
:1014200000000000000000000000000000000000BC
:1014300000000000000031803F8031803F800000CC
:10144000000000000000000000000000000000009C
:101450000000000000006D807F806D807F800000B4
:10146000000000000000000000000000000000007C
:101470000000000000000C001E003300618000002E
:10148000000000000000000000000000000000005C
:1014900000000000000036003E006F00D980000010
:1014A000000000000000000000000000000000003C
:1014B0000000000000001E003300618033001E00A9
:1014C000000000000000000000000000000000001C
:1014D0000000000000003F000C001E003300000070
:1014E00000000000000000000000000000000000FC
:1014F0000000000000007F80330033006D8000009A
:1015000000000000000000000000000000000000DB
:10151000000000000C003F000C001E003300000023
:1015200000000000000000000000000000000000BB
:101530000000000000003F8001803F8003000000A9
:10154000000000000000000000000000000000009B
:101550000000000000003F803F8030003F8000001E
:10156000000000000000000000000000000000007B
:101570000000000000007F80330033007F80000007
:10158000000000000000000000000000000000005B
:10159000000000000C007F801E0033001E000000D1
:1015A000000000000000000000000000000000003B
:1015B000000000000000000000000000000000002B
:1015C000000000000000000000000000000000001B
:1015D000000000000018001800180018001F001874
:1015E000001800180018001800180018001800183B
:1015F000000000000036003600360036003E00369F
:10160000003600360036003600360036003600362A
:1016100000000000001800180018001F0018001F2C
:1016200000180018001800180018001800180018FA
:1016300000000000003600360036003E0036003E56
:1016400000360036003600360036003600360036EA
:1016500000000000000C000C000C000C007C000CD2
:10166000000C000C000C000C000C000C000C000C1A
:1016700000000000003600360036003600F6003666
:1016800000360036003600360036003600360036AA
:1016900000000000000C000C000C007C000C007C22
:1016A000000C000C000C000C000C000C000C000CDA
:1016B0000000000000360036003600F6003600F666
:1016C000003600360036003600360036003600366A
:1016D000000000000000000000000000000000000A
:1016E0000300030003007FFE000000000000000074
:1016F000000000000018001800180018001F001853
:1017000000180C180C187FF80018001800180018A2
:10171000000000000036003600360036003E00367D
:1017200000360C360C367FF60036003600360036B2
:1017300000000000000C000C000C000C000C000C61
:10174000000C0C0C0C0C7FFC000C000C000C000CB2
:101750000000000000000000000000000000000089
:1017600000000D800D807FFE0000000000000000E2
:101770000000000000000000000000000000000069
:1017800000007FFE018001800180018001800180D6
:1017900000000000000C000C000C000C000C000C01
:1017A000000C7FFC060C060C067C060C060C060CD6
:1017B00000000000003600360036003600360036E5
:1017C00000367FF60C360C360CF60C360C360C3622
:1017D00000000000000C000C000C000C000C000CC1
:1017E000000C7FFC060C060C060C060C060C060C06
:1017F00000000000000000000000000000000000E9
:1018000000007FFE066006600660066006600660F7
:1018100000000000000000000000000000000000C8
:101820000000000000007FFE00000000000000003B
:1018300000000000000C000C000C000C000C000C60
:10184000000C000C000C7FFC000C000C000C000CC9
:1018500000000000000C000C000C000C000C000C40
:10186000000C000C000C000C000C000C000C000C18
:101870000000000000000000000000000000000068
:101880000000000000000000000000000000000058
:10189000000000000018001800180018001F0018B1
:1018A0000018001800180018001800180018001878
:1018B000000000000036003600360036003E0036DC
:1018C0000036003600360036003600360036003668
:1018D00000000000001800180018001F0018001F6A
:1018E0000018001800180018001800180018001838
:1018F00000000000003600360036003E0036003E94
:101900000036003600360036003600360036003627
:1019100000000000000C000C000C000C007C000C0F
:10192000000C000C000C000C000C000C000C000C57
:1019300000000000003600360036003600F60036A3
:1019400000360036003600360036003600360036E7
:1019500000000000000C000C000C007C000C007C5F
:10196000000C000C000C000C000C000C000C000C17
:101970000000000000360036003600F6003600F6A3
:1019800000360036003600360036003600360036A7
:101990000000000000000000000000000000000047
:1019A0000000018001807FFE0000000000000000B8
:1019B000000000000018001800180018001F001890
:1019C00000180C180C187FF80018001800180018E0
:1019D000000000000036003600360036003E0036BB
:1019E00000360C360C367FF60036003600360036F0
:1019F00000000000000C000C000C000C000C000C9F
:101A0000000C060C060C7FFC000C000C000C000CFB
:101A100000000000000000000000000000000000C6
:101A20000000066006607FFE00000000000000006D
:101A300000000000000000000000000000000000A6
:101A400000007FFE01800180018001800180000094
:101A500000000000000C000C000C000C000C000C3E
:101A6000000C7FFC060C060C067C060C060C060C13
:101A70000000000000360036003600360036003622
:101A800000367FF60C360C360CF60C360C360C365F
:101A900000000000000C000C000C000C000C000CFE
:101AA000000C7FFC060C060C060C060C060C060C43
:101AB0000000000000000000000000000000000026
:101AC00000007FFE06600660066006600660066035
:101AD0000000000000000000000000000000000006
:101AE0000000000000007FFE000000000000000079
:101AF00000000000000C000C000C000C000C000C9E
:101B0000000C000C000C7FFC000C000C000C000C06
:101B100000000000000C000C000C000C000C000C7D
:101B2000000C000C000C000C000C000C000C000C55
:101B300000000000000000000000000000000000A5
:101B40000000000000000000000000000000000095
:101B5000000000000018001800180018001F0018EE
:101B60000018001800000000000000000000000045
:101B7000000000000036003600360036003E003619
:101B800000360036000000000000000000000000E9
:101B900000000000001800180018001F0018001FA7
:101BA0000018001800000000000000000000000005
:101BB00000000000003600360036003E0036003ED1
:101BC00000360036000000000000000000000000A9
:101BD00000000000000C000C000C000C007C000C4D
:101BE000000C000C000000000000000000000000DD
:101BF00000000000003600360036003600F60036E1
:101C00000036003600000000000000000000000068
:101C100000000000000C000C000C007C000C007C9C
:101C2000000C000C0000000000000000000000009C
:101C30000000000000360036003600F6003600F6E0
:101C40000036003600000000000000000000000028
:101C5000000000000000000000000000030003007E
:101C600003007FFE000000000000000000000000F4
:101C7000000000000018001800180018001F0C18C1
:101C80000C187FF8001800000000000000000000A1
:101C9000000000000036003600360036003E0C36EC
:101CA0000C367FF600360000000000000000000047
:101CB00000000000000C000C000C000C000C060CD6
:101CC000060C7FFC000C000000000000000000007B
:101CD00000000000000000000000000000000D8077
:101CE0000D807FFE000000000000000000000000EA
:101CF00000000000000000000000000000000000E4
:101D000000007FFE01800180000000000000000054
:101D100000000000000C000C000C000C000C00FC8B
:101D20007F8C0C7C0C0C0000000000000000000008
:101D3000000000000000003600360036003601F6D4
:101D40007F360CF60C36000000000000000000009A
:101D500000000000000C000C000C000C000C00FC4B
:101D60007F8C0C0C0C0C0000000000000000000038
:101D70000000000000000000000000000000000063
:101D800000007FFE0660066000000000000000000A
:101D90000000000000000000000000000000000043
:101DA00000007FFE000000000000000000000000B6
:101DB00000000000000C000C000C000C000C000CDB
:101DC000000C7FFC000C0000000000000000000080
:101DD00000000000000C000C000C000C000C000CBB
:101DE000000C000C000000000000000000000000DB
:101DF00000000000000000000000000000000000E3
:101E000000000000000000000000000000000000D2
:101E1000000000000018001800180018001F00182B
:101E20000018001800000000000000000000000082
:101E3000000000000036003600360036003E003656
:101E40000036003600000000000000000000000026
:101E500000000000001800180018001F0018001FE4
:101E60000018001800000000000000000000000042
:101E700000000000003600360036003E0036003E0E
:101E800000360036000000000000000000000000E6
:101E900000000000000C000C000C000C007C000C8A
:101EA000000C000C0000000000000000000000001A
:101EB00000000000003600360036003600F600361E
:101EC00000360036000000000000000000000000A6
:101ED00000000000000C000C000C007C000C007CDA
:101EE000000C000C000000000000000000000000DA
:101EF0000000000000360036003600F6003600F61E
:101F00000036003600000000000000000000000065
:101F10000000000000000000000000000000018040
:101F200001807FFE000000000000000000000000B3
:101F3000000000000018001800180018001F0C18FE
:101F40000C187FF8001800000000000000000000DE
:101F5000000000000036003600360036003E0C3629
:101F60000C367FF600360000000000000000000084
:101F700000000000000C000C000C000C000C060C13
:101F8000060C7FFC000C00000000000000000000B8
:101F900000000000000000000000000000000660DB
:101FA00006607FFE0000000000000000000000004E
:101FB0000000000000000000000000000000000021
:101FC00000007FFE01800180000000000000000092
:101FD00000000000000C000C000C000C000C00FCC9
:101FE0007F8C0C7C0C0C0000000000000000000046
:101FF000000000000000003600360036003601F612
:102000007F360CF60C3600000000000000000000D7
:1020100000000000000C000C000C000C000C00FC88
:102020007F8C0C0C0C0C0000000000000000000075
:1020300000000000000000000000000000000000A0
:1020400000007FFE06600660000000000000000047
:102050000000000000000000000000000000000080
:1020600000007FFE000000000000000000000000F3
:1020700000000000000C000C000C000C000C000C18
:10208000000C7FFC000C00000000000000000000BD
:1020900000000000000C000C000C000C000C000CF8
:1020A000000C000C00000000000000000000000018
:1020B0000000000000000000000000000000000020
:1020C0000000000000000000000000000000000010
:1020D0000000000000000000000000000000000000
:1020E0000000000000000FF8001800180018001889
:1020F00000000000000000000000000000000000E0
:102100000000000000000F780318031803180318DC
:1021100000000000000000000000000000000000BF
:102120000000000000000F3003300330037803CCC0
:10213000000000000000000000000000000000009F
:102140000000000000000C000C000C000C000FF858
:10215000000000000000000000000000000000007F
:102160000000000000000CF80C300C300C780FCC94
:10217000000000000000000000000000000000005F
:102180000000000000000C300CFC0C780CCC0F7828
:10219000000000000000000000000000000000003F
:1021A0000000000000000FF80C000C000C000FF8FD
:1021B000000000000000000000000000000000001F
:1021C0000000000000000FF800180FF80C000FF8D6
:1021D00000000000000000000000000000000000FF
:1021E0000000000000000F7803180F180C180F985B
:1021F00000000000000000000000000000000000DF
:102200000000000000000FF803D80FD80CD80FF81A
:1022100000000000000000000000000000000000BE
:102220000000000000000FD803D80FF80CD80FF8FA
:10223000000000000000000000000000000000009E
:102240000000000000000F3003300F300C780FCC7E
:10225000000000000000000000000000000000007E
:102260000000000000000F7803600F780C600F780A
:10227000000000000000000000000000000000005E
:102280000000000000000FF803500F500C500FF832
:10229000000000000000000000000000000000003E
:1022A0000000000000000F3003FC0F780CCC0F780A
:1022B000000000000000000000000000000000001E
:1022C0000000000000000FF80C180C180C180FF894
:1022D00000000000000000000000000000000000FE
:1022E0000000000000000C180C180FF80C180FF874
:1022F00000000000000000000000000000000000DE
:102300000000000000000D980D980F980DBC0FE61E
:1023100000000000000000000000000000000000BD
:1023200000000000000000C000C001E003300C0C01
:10233000000000000000000000000000000000009D
:102340000000000000000360036007F00D981B0C04
:10235000000000000000000000000000000000007D
:1023600000000000000003F006180C0C061803F033
:10237000000000000000000000000000000000005D
:102380000000000000000FF800C0018003600C187E
:10239000000000000000000000000000000000003D
:1023A00000000000000000C00FFC01E003300C0C36
:1023B000000000000000000000000000000000001D
:1023C0000000000000000FF8001807F800180018BF
:1023D00000000000000000000000000000000000FD
:1023E0000000000000000FF80C000FF80C000FF8C0
:1023F00000000000000000000000000000000000DD
:102400000000000000000FF80360036003600FF895
:1024100000000000000000000000000000000000BC
:1024200000000000000000C00FFC03F0061803F0DD
:10243000000000000000000000000000000000009C
:10244000000000000000000000000000000000008C
:10245000000000000000000000000000000000007C
:1024600000000000000007FC000C000C000C000C39
:10247000000000000000000000000000000000005C
:1024800000000000000007BC018C018C018C018C55
:10249000000000000000000000000000000000003C
:1024A00000000000000007980198019801BC01E6B7
:1024B000000000000000000000000000000000001C
:1024C000000000000000060006000600060007FCF1
:1024D00000000000000000000000000000000000FC
:1024E000000000000000067C06180618063C07E6FF
:1024F00000000000000000000000000000000000DC
:10250000000000000000063006FC067806CC0778C4
:1025100000000000000000000000000000000000BB
:1025200000000000000007FC06000600060007FC93
:10253000000000000000000000000000000000009B
:1025400000000000000007FC000C07FC060007FC70
:10255000000000000000000000000000000000007B
:1025600000000000000007BC018C078C060C07CCA3
:10257000000000000000000000000000000000005B
:1025800000000000000007FC01EC07EC066C07FCF3
:10259000000000000000000000000000000000003B
:1025A00000000000000007EC01EC07FC066C07FCD3
:1025B000000000000000000000000000000000001B
:1025C000000000000000079801980798063C07E605
:1025D00000000000000000000000000000000000FB
:1025E00000000000000007BC01B007BC063007BCBB
:1025F00000000000000000000000000000000000DB
:1026000000000000000007FC01A807A8062807FC3E
:1026100000000000000000000000000000000000BA
:10262000000000000000079801FE07BC066607BC1A
:10263000000000000000000000000000000000009A
:1026400000000000000007FC060C060C060C07FC4E
:10265000000000000000000000000000000000007A
:10266000000000000000060C060C07FC060C07FC2E
:10267000000000000000000000000000000000005A
:1026800000000000000006D806D807D806FC07E6C0
:10269000000000000000000000000000000000003A
:1026A0000000000000000060006000F001980606D5
:1026B000000000000000000000000000000000001A
:1026C00000000000000001B001B001B003780DC6A9
:1026D00000000000000000000000000000000000FA
:1026E00000000000000001F00318060C031801F0C0
:1026F00000000000000000000000000000000000DA
:1027000000000000000007FC006000E001B0060CC3
:1027100000000000000000000000000000000000B9
:10272000000000000000006007FC00E001B0060CA3
:102730000000000000000000000000000000000099
:1027400000000000000007FC000C07FC000C000C5F
:102750000000000000000000000000000000000079
:1027600000000000000007FC060007FC060007FC54
:102770000000000000000000000000000000000059
:1027800000000000000007FC01B001B001B007FC30
:102790000000000000000000000000000000000039
:1027A000000000000000006007FE01F8030C01F8C3
:1027B0000000000000000000000000000000000019
:1027C0000000000000000000000000000000000009
:1027D00000000000000000000000000000000000F9
:1027E00000000000000003FE0006000600060006D0
:1027F00000000000000000000000000000000000D9
:1028000000000000000003DE00C600C600C600C6CF
:1028100000000000000000000000000000000000B8
:1028200000000000000003CC00CC00CC00DE00F370
:102830000000000000000000000000000000000098
:10284000000000000000030003000300030003FE7B
:102850000000000000000000000000000000000078
:10286000000000000000033E030C030C031E03F3F2
:102870000000000000000000000000000000000058
:102880000000000000000318037E033C036603BC45
:102890000000000000000000000000000000000038
:1028A00000000000000003FE03000300030003FE1D
:1028B0000000000000000000000000000000000018
:1028C00000000000000003FE000603FE030003FEFC
:1028D00000000000000000000000000000000000F8
:1028E00000000000000003DE00C603C6030603E686
:1028F00000000000000000000000000000000000D8
:1029000000000000000003FE00F603F6033603FE9D
:1029100000000000000000000000000000000000B7
:1029200000000000000003F600F603FE033603FE7D
:102930000000000000000000000000000000000097
:1029400000000000000003CC00CC03CC031E03F306
:102950000000000000000000000000000000000077
:1029600000000000000003DE00D803DE031803DED1
:102970000000000000000000000000000000000057
:1029800000000000000007FC01A807A8062807FCBB
:102990000000000000000000000000000000000037
:1029A000000000000000079801FE07BC066607BC97
:1029B0000000000000000000000000000000000017
:1029C00000000000000003FE03060306030603FEEA
:1029D00000000000000000000000000000000000F7
:1029E0000000000000000306030603FE030603FECA
:1029F00000000000000000000000000000000000D7
:102A0000000000000000036C036C03EC037E03F382
:102A100000000000000000000000000000000000B6
:102A200000000000000000300030007800CC0303FC
:102A30000000000000000000000000000000000096
:102A400000000000000000D800D800D801BC06E358
:102A50000000000000000000000000000000000076
:102A600000000000000000F8018C0306018C00F853
:102A70000000000000000000000000000000000056
:102A800000000000000003FE0030007000D80306C4
:102A90000000000000000000000000000000000036
:102AA000000000000000003003FE007000D80306A4
:102AB0000000000000000000000000000000000016
:102AC00000000000000003FE000603FE00060006F2
:102AD00000000000000000000000000000000000F6
:102AE00000000000000003FE030003FE030003FEDD
:102AF00000000000000000000000000000000000D6
:102B000000000000000003FE00D800D800D803FE3B
:102B100000000000000000000000000000000000B5
:102B2000000000000000006007FE01F8030C01F83F
:102B30000000000000000000000000000000000095
:102B40000000000000000000000000000000000085
:102B50000000000000000000000000000000000075
:102B60000000000000000FF80018001800180018FE
:102B70000000000000000000000000000000000055
:102B80000000000000000F78031803180318031852
:102B90000000000000000000000000000000000035
:102BA0000000000000000F3003300330037803CC36
:102BB0000000000000000000000000000000000015
:102BC0000000000000000C000C000C000C000FF8CE
:102BD00000000000000000000000000000000000F5
:102BE0000000000000000CF80C300C300C780FCC0A
:102BF00000000000000000000000000000000000D5
:102C00000000000000000C600DF80CF00D980EF0B4
:102C100000000000000000000000000000000000B4
:102C20000000000000000FF80C000C000C000FF872
:102C30000000000000000000000000000000000094
:102C40000000000000000FF800180FF80C000FF84B
:102C50000000000000000000000000000000000074
:102C60000000000000000F7803180F180C180F98D0
:102C70000000000000000000000000000000000054
:102C80000000000000000FF803D80FD80CD80FF890
:102C90000000000000000000000000000000000034
:102CA0000000000000000FD803D80FF80CD80FF870
:102CB0000000000000000000000000000000000014
:102CC0000000000000000F3003300F300C780FCCF4
:102CD00000000000000000000000000000000000F4
:102CE0000000000000000F7803600F780C600F7880
:102CF00000000000000000000000000000000000D4
:102D00000000000000000FF803500F500C500FF8A7
:102D100000000000000000000000000000000000B3
:102D20000000000000000F3003FC0F780CCC0F787F
:102D30000000000000000000000000000000000093
:102D40000000000000000FF80C180C180C180FF809
:102D50000000000000000000000000000000000073
:102D60000000000000000C180C180FF80C180FF8E9
:102D70000000000000000000000000000000000053
:102D80000000000000000DB00DB00FB00DF80FCC2A
:102D90000000000000000000000000000000000033
:102DA0000000000000000180018003C006601818C8
:102DB0000000000000000000000000000000000013
:102DC00000000000000003600360036006F01B8C3D
:102DD00000000000000000000000000000000000F3
:102DE00000000000000003E006300C18063003E08D
:102DF00000000000000000000000000000000000D3
:102E00000000000000000FF800C001C003600C18B3
:102E100000000000000000000000000000000000B2
:102E200000000000000000C00FF801C003600C1893
:102E30000000000000000000000000000000000092
:102E40000000000000000FF800180FF8001800182C
:102E50000000000000000000000000000000000072
:102E60000000000000000FF80C000FF80C000FF835
:102E70000000000000000000000000000000000052
:102E80000000000000000FF80360036003600FF80B
:102E90000000000000000000000000000000000032
:102EA00000000000000001801FF807E00C3007E080
:102EB0000000000000000000003E5B4F5B3E3E6BE8
:102EC0004F6B3E1C3E7C3E1C183C7E3C181C577DC4
:102ED000571C1C5E7F5E1C00183C1800FFE7C3E710
:102EE000FF0018241800FFE7DBE7FF30483A060E22
:102EF0002629792926407F050507407F05253F5A69
:102F00003CE73C5A7F3E1C1C08081C1C3E7F1422D8
:102F10007F22145F5F005F5F06097F017F00668983
:102F2000956A606060606094A2FFA29408047E04C9
:102F30000810207E201008082A1C08081C2A0808EF
:102F40001E101010100C1E0C1E0C30383E383006AF
:102F50000E3E0E06000000000000005F00000007AB
:102F6000000700147F147F14242A7F2A12231308D9
:102F7000646236495620500008070300001C2241B5
:102F8000000041221C002A1C7F1C2A08083E080859
:102F90000080703000080808080800006060002009
:102FA000100804023E5149453E00427F40007249EC
:102FB0004949462141494D331814127F1027454590
:102FC00045393C4A494931412111090736494949A6
:102FD00036464949291E0000140000004034000014
:102FE000000814224114141414140041221408027D
:102FF000015909063E415D594E7C1211127C7F49F0
:103000004949363E414141227F4141413E7F494944
:1030100049417F090909013E414151737F08080870
:103020007F00417F41002040413F017F0814224141
:103030007F404040407F021C027F7F0408107F3E9B
:103040004141413E7F090909063E4151215E7F0908
:10305000192946264949493203017F01033F40406F
:10306000403F1F2040201F3F4038403F631408145A
:103070006303047804036159494D43007F41414192
:103080000204081020004141417F04020102044073
:1030900040404040000307080020545478407F28F7
:1030A0004444383844444428384444287F385454ED
:1030B000541800087E090218A4A49C787F08040410
:1030C0007800447D40002040403D007F10284400AF
:1030D00000417F40007C047804787C080404783840
:1030E00044444438FC1824241818242418FC7C0870
:1030F000040408485454542404043F44243C4040ED
:10310000207C1C2040201C3C4030403C442810289F
:10311000444C9090907C4464544C440008364100E8
:103120000000770000004136080002010204023C62
:103130002623263C1EA1A161123A4040207A385431
:1031400054555921555579412254547842215554AA
:10315000784020545579400C1E52721239555555FD
:1031600059395454545939555454580000457C41E8
:103170000002457D420001457C407D1211127DF028
:10318000282528F07C545545002054547C547C0A52
:10319000097F4932494949323A4444443A324A481B
:1031A00048303A4141217A3A42402078009DA0A01F
:1031B0007D3D4242423D3D4040403D3C24FF242471
:1031C000487E4943662B2FFC2F2BFF0929F620C090
:1031D000887E090320545479410000447D413048E1
:1031E000484A32384040227A007A0A0A727D0D1924
:1031F000317D2629292F28262929292630484D4086
:1032000020380808080808080808382F10C8ACBA81
:103210002F102834FA00007B000008142A14222200
:10322000142A14085500550055AA55AA55AAFF5549
:10323000FF55FF000000FF00101010FF00141414D1
:10324000FF001010FF00FF1010F010F0141414FC19
:10325000001414F700FF0000FF00FF1414F404FC36
:10326000141417101F10101F101F1414141F001017
:103270001010F0000000001F101010101F10101090
:1032800010F010000000FF1010101010101010109F
:10329000FF10000000FF140000FF00FF00001F10DF
:1032A000170000FC04F414141710171414F404F499
:1032B0000000FF00F714141414141414F700F7148A
:1032C0001414171410101F101F141414F4141010D9
:1032D000F010F000001F101F0000001F140000007D
:1032E000FC140000F010F01010FF10FF141414FF75
:1032F000141010101F00000000F010FFFFFFFFFF70
:10330000F0F0F0F0F0FFFFFF0000000000FFFF0F03
:103310000F0F0F0F3844443844FC4A4A4A347E02A7
:10332000020606027E027E02635549416338444428
:103330003C04407E201E2006027E020299A5E7A5DD
:10334000991C2A492A1C4C7201724C304A4D4D304E
:103350003048784830BC625A463D3E494949007E73
:103360000101017E2A2A2A2A2A44445F444440510A
:103370004A444040444A51400000FF0103E080FFBE
:10338000000008086B6B083612362436060F090F4A
:1033900006000018180000001010003040FF010166
:1033A000001F01011E00191D1712003C3C3C3C008F
:1033B00000000000000103070F1F3F7F0080C0E0F6
:1033C000F0F8FCFEDB40A4A62EAF2000A1C8D3007D
:1033D000408DAED580A800002100240027002A00DF
:1033E0002D003000330001010000040107010A0133
:1033F00000002200250028002B002E0031003400A0
:1034000002010000050108010B010000200023005B
:10341000260029002C002F003200000100000301CB
:103420000601090105050505070508080808020247
:1034300002020A0A0808040404040101010101014E
:1034400001010303030303030303040707070C0C31
:103450000C0C0C0C0C0C02020202060606060606F8
:1034600006060B0B0B0B0B0B0B0B0102102020089D
:1034700008102040102040800201020108040201CF
:10348000010204081020408080402010080402013E
:103490008004020180402010080402010804020197
:1034A000010204081020408001020408102040801E
:1034B00000000A0B02090C0D0E08070304010000AE
:1034C00000000000000000000000000000000000FC
:1034D00000000000000000000000000012111000B9
:1034E00000000000000000000000000000000000DC
:1034F0000000000000002200FF2100009530833012
:1035000011241FBECFEFD1E2DEBFCDBF00E00CBF64
:103510002CE0ACE3B9E001C01D92AF31B207E1F796
:1035200019E0A0E0B2E0E4E8F2E800E00BBF02C07E
:1035300007900D92AC33B107D9F71AE1CFE7DAE182
:1035400000E006C021970109802FFE010E946C3B1C
:10355000CE37D10780E00807A9F70E947F310C948D
:1035600030410C94000008958150823108F05AC017
:10357000E82FF0E08827E054F54E8F4F0C946C3B19
:10358000E01AE41AD21AD81ADC1A121BE71AED1A3A
:10359000F11AF71AFB1AFF1A051B091B121B0D1B48
:1035A000131B171B809180008F77809380000895F4
:1035B000809180008F7DF9CF80918000877FF5CF4B
:1035C00084B58F7784BD089584B58F7DFBCF8091BE
:1035D000B0008F778093B00008958091B0008F7D08
:1035E000F9CF809190008F7780939000089580911B
:1035F00090008F7DF9CF80919000877FF5CF8091EB
:10360000A0008F778093A00008958091A0008F7D07
:10361000F9CF8091A000877FF5CF809120018F772F
:10362000809320010895809120018F7DF9CF8091B2
:103630002001877FF5CFCF93DF93282F30E0F9016A
:10364000E055FB4C8491F901E659FB4CD491F9010A
:10365000EC5DFB4CC491CC23A1F081110E94B41A03
:10366000EC2FF0E0EE0FFF1FE65FFB4CA591B4914D
:10367000EC91ED2381E090E009F480E0DF91CF91BF
:10368000089580E090E0FACF1F93CF93DF93282F27
:1036900030E0F901E055FB4C8491F901E659FB4C0F
:1036A000D491F901EC5DFB4CC491CC23A9F0162F09
:1036B00081110E94B41AEC2FF0E0EE0FFF1FE051D1
:1036C000FC4CA591B4918FB7F894EC91111108C0FE
:1036D000D095DE23DC938FBFDF91CF911F910895AA
:1036E000DE2BF8CFCF93DF9390E0FC01E659FB4C43
:1036F00024918C5D9B4CFC0184918823D1F090E057
:10370000880F991FFC01EA52FC4CA591B491FC0171
:10371000E051FC4CC591D491623071F49FB7F8949C
:103720003C91822F809583238C93E8812E2B2883D4
:103730009FBFDF91CF9108958FB7F894EC912E2B16
:103740002C938FBFF6CF3FB7F89480912C0A9091BD
:103750002D0AA0912E0AB0912F0A26B5A89B05C06C
:103760002F3F19F00196A11DB11D3FBFBA2FA92F00
:10377000982F8827BC01CD01620F711D811D911DFD
:1037800042E0660F771F881F991F4A95D1F7089569
:103790008F929F92AF92BF92CF92DF92EF92FF9261
:1037A0004B015C010E94A31B6B017C010E94A31BC7
:1037B0006C197D098E099F09683E7340810591054A
:1037C000A8F321E0821A9108A108B10888EEC80E7A
:1037D00083E0D81EE11CF11C81149104A104B10402
:1037E00029F7FF90EF90DF90CF90BF90AF909F9020
:1037F0008F90089508950895AF92BF92CF92DF926F
:10380000EF92FF920F931F93CF93DF936C017B0195
:103810008B01040F151FEB015E01AE18BF08C01726
:10382000D10759F06991D601ED91FC910190F08199
:10383000E02DC6011995892B79F7C501DF91CF914C
:103840001F910F91FF90EF90DF90CF90BF90AF90BE
:103850000895FC01538D448D252F30E0842F90E096
:10386000821B930B541710F0CF960895019708957B
:10387000FC01918D828D981761F0A28DAE0FBF2F44
:10388000B11D5D968C91928D9F5F9F73928F90E09A
:1038900008958FEF9FEF0895FC01918D828D981709
:1038A00031F0828DE80FF11D858D90E008958FEF46
:1038B0009FEF0895FC01918D228D892F90E0805C0F
:1038C0009F4F821B91098F739927089584EB9AE08B
:1038D0000E945A1C21E0892B09F420E0822F0895D0
:1038E000FC01A48DA80FB92FB11DA35ABF4F2C9175
:1038F000848D90E001968F739927848FA689B7896C
:103900002C93A089B1898C91837080648C93938D62
:10391000848D981306C00288F389E02D80818F7D05
:1039200080830895EF92FF920F931F93CF93DF93BD
:10393000EC0181E0888F9B8D8C8D98131AC0E889EB
:10394000F989808185FF15C09FB7F894EE89FF89BA
:103950006083E889F98980818370806480839FBF58
:1039600081E090E0DF91CF911F910F91FF90EF9058
:103970000895F62E0B8D10E00F5F1F4F0F73112768
:10398000E02E8C8D8E110CC00FB607FCFACFE889A3
:10399000F989808185FFF5CFCE010E94701CF1CF9F
:1039A000EB8DEC0FFD2FF11DE35AFF4FF0829FB717
:1039B000F8940B8FEA89FB8980818062CFCFCF9307
:1039C000DF93EC01888D8823B9F0AA89BB89E88947
:1039D000F9898C9185FD03C0808186FD0DC00FB6ED
:1039E00007FCF7CF8C9185FFF2CF808185FFEDCF6B
:1039F000CE010E94701CE9CFDF91CF91089580E045
:103A000090E0892B29F00E94661C81110E94000021
:103A100080E090E0892B49F080E090E0892B29F04C
:103A20000E94000081110E94000080E090E0892B3C
:103A300049F080E090E0892B29F00E94000081117C
:103A40000E94000080E090E0892B49F080E090E047
:103A5000892B29F00E94000081110C940000089528
:103A6000EF92FF920F931F93CF93DF93EC01EC80C3
:103A7000FD806E157F050CF070C057FF04C0240F49
:103A8000351F50E040E08E819F81FA01E20FF31F65
:103A90008E179F071CF49C01241B350B121613066E
:103AA0000CF05BC0922F842F8695869586958E9D0F
:103AB000D0018F9DB00D11246A0F7B1FAF8DB8A16F
:103AC000A60FB71F477049F188E0841B482F682F65
:103AD00070E0FB01E454FC4CE491281708F063C04B
:103AE000621B71092FEF30E002C0359527956A956A
:103AF000E2F7E2230130110539F0B0F1023011058F
:103B000061F58C91E82702C08C91E82BEC93941717
:103B100020F12C813D81A20FB31FE92FE41BE83077
:103B200078F00230110521F58E2F9C9190959C9391
:103B30002C813D81A20FB31F88508830B0F7E77009
:103B4000EE2359F0F0E0EC54FC4CE4910130110507
:103B5000F9F010F10230110519F1DF91CF911F91A9
:103B60000F91FF90EF900895E0958C91E823CECFD0
:103B700081E00115110509F480E081959E2F8C9359
:103B80002C813D81A20FB31F98509830C0F7D7CF3A
:103B90008C91E82BEC93E1CFE0958C91E823FACF60
:103BA0008C91E827F7CF0130110509F4ADCFE0F291
:103BB0000230110509F4A5CFAE0DBF1DAECF0F9396
:103BC0001F93CF93DF9377FF04C0260F371F70E05A
:103BD00060E0DC011496CD91DC91FB01E20FF31F54
:103BE000CE17DF071CF49E01261B370B1216130697
:103BF0004CF5FA0157FD3796A3E0F595E795AA95A0
:103C0000E1F7EC9FD001ED9FB00DFC9FB00D1124AA
:103C10006A0F7B1FDC015F96ED91FC91E60FF71FA9
:103C20004770552781E090E001C0880F4A95EAF778
:103C3000482F0130110559F0A8F02E0F3F1F023018
:103C40001105E1F0DF91CF911F910F9108952E0F93
:103C50003F1FE217F307B1F38191DF011197842B26
:103C60008C93F7CF80952E0F3F1FE217F30751F388
:103C70009191DF01119798239C93F7CFE217F307F7
:103C800009F38191DF01119784278C93F7CF0F936C
:103C90001F93FA01DC0156964C9156974230E9F099
:103CA0004330A1F1413061F514964D915C91DA01F8
:103CB000AE1BBF0BFD01E21BF30B77FD0BC0DC015C
:103CC00016964D915C916417750724F4AB01BF0102
:103CD0000E94DF1D1F910F91089514964D915C91E4
:103CE000DA01A61BB70BBD0161507109DC01169604
:103CF0004D915C91DA01AE1BBF0BFD01E21BF30B92
:103D000077FDE8CFAF010E94301DE4CF16964D91AC
:103D10005C91DA01A61BB70BBD0161507109CDCFD3
:103D20000F931F93FA01DC0156964C91569742303F
:103D3000A9F0433091F1413019F514964D915C9101
:103D4000DA01AE1BBF0BFD013197F7FD04C0AB01DB
:103D5000BF010E94301D1F910F91089514964D913F
:103D60005C91DA01A61BB70BBD01DC0116964D91E3
:103D70005C91DA01AE1BBF0BFD013197621B730B27
:103D8000F7FDE9CFDC0116964D915C91E417F5073C
:103D900014F7AF010E94DF1DDECF16964D915C91A6
:103DA000DA01A61BB70BBD01621B730BCECFFC0162
:103DB00077FD64C080859185681779070CF05EC037
:103DC00057FD5CC082859385481759070CF056C093
:103DD00086898230B1F0833029F1813041F48481C9
:103DE0009581841B950BAB01BC0161507109213099
:103DF000310509F108F443C02230310509F463C0EC
:103E0000089584819581DC01A61BB70BBD0161502B
:103E1000710986819781DC01A41BB50BAD0141506E
:103E20005109E5CF86819781861B970BBA01AC01BA
:103E300041505109DCCFCA0157FD0796A3E0959583
:103E40008795AA95E1F7A481B5818A9F90018B9F00
:103E5000300D9A9F300D1124620F731F078CF0A153
:103E6000E02DE60FF71F4770552721E030E001C035
:103E7000220F4A95EAF78081822B80830895CA0138
:103E800057FD079633E0959587953A95E1F7A4811C
:103E9000B5818A9F90018B9F300D9A9F300D112420
:103EA000620F731F078CF0A1E02DE60FF71F47701C
:103EB000552781E090E001C0880F4A95EAF7809588
:103EC00090818923DACFCA0157FD079623E09595A3
:103ED00087952A95E1F7A481B5818A9F90018B9FF0
:103EE000300D9A9F300D1124620F731F078CF0A1C3
:103EF000E02DE60FF71F4770552721E030E001C0A5
:103F0000220F4A95EAF780818227B7CF08958EBDA8
:103F100000000DB407FEFDCF8EB508958CBD9DBD8C
:103F200008950895FC016370668B848195812681D4
:103F30003781613039F0633029F09187808733878A
:103F400022870895318720879387828708952F924B
:103F50003F924F925F926F927F928F929F92AF9219
:103F6000BF92CF92DF92EF92FF920F931F93CF9366
:103F7000DF93CDB7DEB76A970FB6F894DEBF0FBEFA
:103F8000CDBF9A8F898F7A8369834A01D22E188791
:103F90000F833701BC2CDC0159962D913C915A9727
:103FA0002115310509F015C118968D919C9119972D
:103FB000681779070CF0D7C11A968D919C91481714
:103FC00059070CF0D0C14C2C512CB6E0CB9E600DA3
:103FD000711D11247C876B87161617060CF0C3C160
:103FE000EA2DF0E0FA87E98793E0EE0FFF1F9A953C
:103FF000E1F7F88BEF87CF01840F951F181619068C
:104000000CF0B1C1A98DBA8D58968C91811104C064
:10401000BFEABD1508F4D394A98DBA8DED91FC913A
:1040200011970284F385E02DCD011995B5E0DB9E53
:10403000C0011124E981FA81FC83EB83312C212C0E
:104040009C012C54314D388F2F8B4A2D50E05E8BC4
:104050004D8BEF89F88DE20DF31D44919E828D8288
:10406000D12CC12C69817A81620D731D7A8B698B89
:10407000842F90E09C8B8B8BE98DFA8DA081B18190
:1040800040FF82C0F1E0BF126FC0AF126DC01C963E
:10409000ED91FC912F813885A4014C0D5D1D69893E
:1040A0007A89898D9A8D1995EB89FC89F595E79523
:1040B0004E2F5FEFC51AD50A6D817E818D899E894D
:1040C000680F791F7E836D8398E0C916D10481F64D
:1040D000AFEF2A1A3A0AEB81FC81E40DF51DFC834F
:1040E000EB83F5E02F16310409F0B3CF2F8138852B
:1040F00026153705B9F0A98DBA8DED91FC91B1E087
:10410000BB1257C0AB1255C069817A816B5F7F4F7C
:104110000088F189E02D830128E030E0A401898D39
:104120009A8D1995A98DBA8DED91FC9111970688FC
:10413000F789E02DCD016A960FB6F894DEBF0FBE69
:10414000CDBFDF91CF911F910F91FF90EF90DF9046
:10415000CF90BF90AF909F908F907F906F905F9027
:104160004F903F902F9019941E96ED91FC91EF8007
:10417000F88409851A8592014D815E816B817C816D
:10418000898D9A8D199590CF2F8138852615370501
:1041900009F48ACF31E0B31207C0A31205C01C9600
:1041A000ED91FC91930178CF1E96ED91FC917301F6
:1041B000E0CF6B857C85641975090684F785E02D51
:1041C00073010F8518899201A401898D9A8D199523
:1041D000A9CFF90134969491329745915491D91A07
:1041E000B7E0DB9E400D511D1124F901259134915A
:1041F0003C8B2B8BFA0125903490FA013296749007
:1042000031963491398B329664903196449041E0E6
:104210004C1518F04A1508F07FC0662D062C000CCE
:10422000770B7C836B83842D042C000C990B9E836D
:104230008D83A98DBA8DED91FC9111970284F38540
:10424000E02DCD011995512CD12CC12CEA2DF0E097
:10425000FA87E9872B2D30E03C872B87A401440D9A
:10426000511D47FC5A95588F4F8B69817A81660D95
:10427000711D67FC7A957E876D877989C71608F06E
:1042800051CF2C2D30E04D815E81420F531FA98507
:10429000BA854A9FC0014B9F900D5A9F900D1124E3
:1042A000FC01E80DF91DF88BEF87852D612C4F89F6
:1042B000588D420F531F5E8B4D8B671408F050C012
:1042C00044244394480E877041F4C1010196EB8960
:1042D000FC89E20DF31DD4901C01D7FE19C0A98DF5
:1042E000BA8DED91FC91662D70E0B1E0BB1219C062
:1042F000AB1217C02D853E85620F731F0484F585B0
:10430000E02D2F8138854D895E89898D9A8D19958B
:10431000DD0C6394842DD1CF1E821D821C821B82F2
:1043200088CF4B815C81640F751FAB85BC856A9F0C
:10433000C0016B9F900D7A9F900D112469817A8145
:10434000680F791F0684F785E02DEF80F8840985D2
:104350001A859D014F855889898D9A8D1995D8CFD9
:10436000570CC3948ACF6A960FB6F894DEBF0FBE7F
:10437000CDBFDF91CF911F910F91FF90EF90DF9014
:10438000CF90BF90AF909F908F907F906F905F90F5
:104390004F903F902F9008958F929F92AF92CF921F
:1043A000EF92FF920F931F93CF93DF93EC01262F91
:1043B000898D9A8D009709F051C06A30D1F41D861D
:1043C0001C868D8948E0849F900111248E859F85ED
:1043D000820F931F9F878E8781E090E0DF91CF91BE
:1043E0001F910F91FF90EF90CF90AF909F908F9083
:1043F00008956D3089F3CC88AD888F898823C1F00A
:104400008C859D8536E0C39E800D911D11244885C5
:1044100059854817590764F44E855F851D861C86AB
:1044200038E0A39EC0011124840F951F9F878E87BB
:10443000EA88FB88088919894E855F856C857D85AA
:10444000CE010E94A71F2C898C859D8546E0249F64
:10445000800D911D11249D878C87BECF6A3069F431
:104460001D861C86FC013896E4912D898E859F85DA
:10447000E29F800D911D1124ADCF6D3009F4ACCFBA
:10448000FC0134963491631708F4A6CF3296E49178
:10449000E61708F4A1CFFC01329685909490462F40
:1044A000431B342F47E0349F800C911C1124F401EE
:1044B000329634913196E4913323A9F1EE2399F1A8
:1044C000CC88F4013596E491AD884F89442301F1FD
:1044D0000E2E000CFF0BE30FF11DCE9EA001CF9E10
:1044E000500D11246C857D85460F571F6885798591
:1044F000641775076CF44E855F851D861C86FC016C
:104500003896E491AE9E400D511D11245F874E8771
:10451000EA88FB88088919894E855F856C857D85C9
:10452000CE010E94A71FF4013496E4912C898C855A
:104530009D85E29F800D911D11248DCF6F927F92FA
:104540008F929F92AF92BF92CF92DF92EF92FF92A3
:104550000F931F93CF93DF93EC016B015A01390145
:104560004801E881F9810284F385E02D1995E881FD
:10457000F9810288F389E02D87019301A501B60135
:10458000CE011995A501480D591D41505109E881E9
:10459000F9810288F389E02D9301B601CE011995C6
:1045A000E881F9810088F189E02D9401A501B60127
:1045B000CE011995C60CD71CB60161507109E8816E
:1045C000F9810088F189E02D9401A501CE011995AA
:1045D000E881F9810688F789E02DCE01DF91CF913E
:1045E0001F910F91FF90EF90DF90CF90BF90AF9011
:1045F0009F908F907F906F9019946F927F928F927F
:104600009F92AF92BF92CF92DF92EF92FF920F9361
:104610001F93CF93DF935C01EB016A0149013801DD
:104620008701DC01ED91FC916217730719F564169F
:1046300075062CF0962D872D3A01C92ED82E96019D
:10464000261937092F5F3F4F048CF58DE02DA3010C
:10465000BE01C5011995DF91CF911F910F91FF9078
:10466000EF90DF90CF90BF90AF909F908F907F9012
:104670006F9008954615570591F42617370724F0D3
:10468000892D4B01C22FD82F9E01281939092F5F80
:104690003F4F068CF78DE02DA601B401DACF0284DE
:1046A000F385E02D1995D501ED91FC910488F589EC
:1046B000E02D83019401A601BE01C5011995D50124
:1046C000ED91FC910688F789E02DC501DF91CF912E
:1046D0001F910F91FF90EF90DF90CF90BF90AF9020
:1046E0009F908F907F906F901994EF92FF920F930D
:1046F0001F93DC011A960D911C911B9718962D9112
:104700003C911997ED91FC9100A0F1A1E02D7B0166
:1047100050E040E070E060E019951F910F91FF902C
:10472000EF9008954F925F926F927F928F929F9237
:10473000AF92BF92CF92DF92EF92FF920F931F93AF
:10474000CF93DF936C012B015A0139014801DC0141
:10475000ED91FC910284F385E02D1995E201640C42
:10476000751CD601ED91FC91C615D7055CF4008847
:10477000F189E02D87019401A501BE01C6011995BB
:104780002196EFCF0688F789E02DC601DF91CF9102
:104790001F910F91FF90EF90DF90CF90BF90AF905F
:1047A0009F908F907F906F905F904F9019948F9211
:1047B0009F92AF92BF92CF92DF92EF92FF920F93B0
:1047C0001F93CF93DF93EC015B014A016901E881FC
:1047D000F9810284F385E02D199595012C0D3D1D7D
:1047E00021503109E881F9810488F589E02D7801AB
:1047F0008401A401B501CE011995E881F9810688EB
:10480000F789E02DCE01DF91CF911F910F91FF909D
:10481000EF90DF90CF90BF90AF909F908F901994C2
:104820008F929F92AF92BF92CF92DF92EF92FF92C0
:104830000F931F93CF93DF93EC015B014A01690152
:104840007801E881F9810284F385E02D1995C80C7F
:10485000D91C860101501109E881F9810488F58984
:10486000E02D9501A401B501CE011995E881F981EA
:104870000688F789E02DCE01DF91CF911F910F912E
:10488000FF90EF90DF90CF90BF90AF909F908F9070
:104890001994EF92FF920F931F93DC01ED91FC911D
:1048A00000A0F1A1E02D19951F910F91FF90EF90BD
:1048B00008950F931F93DC01ED91FC91068CF78D09
:1048C000E02D19951F910F9108950F931F93DC010F
:1048D000ED91FC91048CF58DE02D19951F910F91B0
:1048E0000895DC01ED91FC910084F185E02D19948F
:1048F0003F924F925F926F927F928F929F92AF9270
:10490000BF92CF92DF92EF92FF920F931F93CF93BC
:10491000DF935C014B016A012A0187E0480E511CBC
:1049200093E0559447949A95E1F7F12CE12C312CC2
:1049300010E000E03801680C791CD0E0C0E0CE0146
:1049400087709927330C892B59F4FE0183E0F59584
:10495000E7958A95E1F7EE0DFF1DEC5CF54F308091
:1049600037FE0AC021E030E0A301BE016A0D7B1DC5
:1049700085ED9BE00E9471242196CC16DD06F9F6A8
:104980000F5F1F4FE40CF51C0032110599F6DF9103
:10499000CF911F910F91FF90EF90DF90CF90BF903C
:1049A000AF909F908F907F906F905F904F903F90CF
:1049B00008952F923F924F925F926F927F928F92C3
:1049C0009F92AF92BF92CF92DF92EF92FF920F939E
:1049D0001F93CF93DF9300D000D0CDB7DEB73C015B
:1049E0006A013E832D83FC82EB825801A41AB50A2A
:1049F000B7FE03C0B194A194B1088D809E80861A41
:104A0000970A97FE03C09194819491088A149B049D
:104A10005CF0902F812F0D811E819D838E839C2DB4
:104A20008D2D6B01692F782F0C151D055CF09D8174
:104A30008E817E836D83692F782F902F812F860141
:104A4000C92ED82E1601201A310A2B012D813E8144
:104A5000421A530A57FE03C0519441945108710100
:104A600037FE03C03FEFE31AF30AF594E7948D8114
:104A70009E81861797075CF5A1E0B0E0BA83A98311
:104A8000C016D1064CF1D301ED91FC910484F5855B
:104A9000E02D2B813C81A8016D817E818A149B04CD
:104AA0001CF04D815E81B801C3011995E418F50829
:104AB000F7FE0AC02D813E8189819A81280F391F16
:104AC0003E832D83E20CF31C0F5F1F4FD9CF2FEFD6
:104AD0003FEF3A832983D4CF26960FB6F894DEBFF2
:104AE0000FBECDBFDF91CF911F910F91FF90EF903F
:104AF000DF90CF90BF90AF909F908F907F906F90FE
:104B00005F904F903F902F90089508952091BD0998
:104B1000260F3327331F21323105ECF42091E109B0
:104B2000FC0190E080E0243069F082E00895A091DB
:104B3000BD092191AC014356564FA40FB52FB11DAD
:104B40002C930196861798F38091BD09680F6093A6
:104B5000BD0980E0089581E008951092E10981E0A7
:104B60008093E3091092E20961E084E10E94441B12
:104B700061E085E10E94441BE9EBF0E080818E7FDB
:104B8000808380818D7F808388E48093B80085E472
:104B90008093BC000895CF93DF9391E090930C0A2B
:104BA0008823B9F0C091B800D091BA008091BC00C0
:104BB0008A7B8093BC0060E084E10E94441B60E03B
:104BC00085E10E94441B0E94AD25D093BA00C0939A
:104BD000B800DF91CF910895E091130A8091120AF5
:104BE000E81730F4F0E0E358F64F808190E0089544
:104BF0008FEF9FEF08959091130A8091120A2FEF83
:104C00003FEF981748F4E92FF0E0E358F64F208182
:104C100030E09F5F9093130AC90108958091120AB2
:104C20009091130A891B990B0895CF92DF92EF920E
:104C3000FF920F931F93CF93DF937C01CB018A01E7
:104C40002091330A222389F0EB016B01C40ED51E9B
:104C5000CC15DD0569F06991D701ED91FC910190CA
:104C6000F081E02DC7011995F3CF642F0E948625AE
:104C7000C801DF91CF911F910F91FF90EF90DF90CE
:104C8000CF900895CF93DF931F92CDB7DEB769839E
:104C90002091330A2223F9F02091300A203258F073
:104CA00021E030E0FC013383228390E080E00F902C
:104CB000DF91CF9108958091310AE82FF0E0E35A17
:104CC000F64F998190838F5F8093310A8093300AE9
:104CD00081E090E0ECCF61E0CE0101960E94862554
:104CE000F7CFCF92DF92EF92FF920F931F93CF9364
:104CF000DF93D091300A81E0D13208F09CC0C0919E
:104D0000320A0E94A31B6B017C018091E109811191
:104D10006CC082E08093E10981E08093E3098FEF2A
:104D20008093E0091092050AD093040AADE5B9E03A
:104D3000E4EEF9E080E0D8138DC01092060A80916D
:104D4000060ACC0FC82BC093060A8091E209813075
:104D500009F084C01092E2090E94A31B6B017C0140
:104D60008091060A8093BB008091080A9091090AFD
:104D7000A0910A0AB0910B0A892B8A2B8B2BA1F0E8
:104D80000E94A31B0091080A1091090A20910A0AA7
:104D900030910B0A6C197D098E099F0906171707B8
:104DA0002807390708F442C08091BC0083FDD8CFA2
:104DB00085EC8093BC000E94A31B6B017C01809159
:104DC000E109823009F44CC08091E0098F3F09F479
:104DD00069C08091E009803209F466C08091E009E1
:104DE000803309F463C084E026C08091080A909162
:104DF000090AA0910A0AB0910B0A892B8A2B8B2BE6
:104E000009F483CF0E94A31B0091080A1091090A9C
:104E100020910A0A30910B0A6C197D098E099F09AD
:104E2000061717072807390708F06FCF8091070A80
:104E30000E94CB2585E01092310A1092300A109220
:104E4000330ADF91CF911F910F91FF90EF90DF9088
:104E5000CF9008959D9191938F5F6DCF85EEA9CFEF
:104E60008091080A9091090AA0910A0AB0910B0A50
:104E7000892B8A2B8B2B09F4A2CF0E94A31B0091B4
:104E8000080A1091090A20910A0A30910B0A6C193C
:104E90007D098E099F09061717072807390708F0AB
:104EA0008ECFC4CF80E0C7CF82E0C5CF83E0C3CF31
:104EB000EF92FF920F931F93CF93DF937C01C62F46
:104EC0008091F20B9091F30B009709F459C0209157
:104ED000F60B31E03093330A2093320A1092310AF4
:104EE0001092300ADC01ED91FC910190F081E02DEF
:104EF00060E019958701EE24E394F12CD1E0C150D4
:104F00008091F20B9091F30BCF3F91F1B0E2EB1651
:104F1000F104D8F00E9471268091F20B9091F30B6E
:104F20002091F60BD093330A2093320A1092310A63
:104F30001092300ADC01ED91FC910190F081E02D9E
:104F400060E01995EE24E394F12C8091F20B90919E
:104F5000F30BF8016491DC01ED91FC910190F0817B
:104F6000E02D1995BFEFEB1AFB0A0F5F1F4FC7CF5C
:104F7000DF91CF911F910F91FF90EF900C947126CC
:104F8000E091020CF091030C90818091080C8095C7
:104F9000892380838701C15008F438C0F8018491C7
:104FA0002091F00B3091F10B232B29F00E94871FE9
:104FB0000F5F1F4FF0CF28E030E040E8E091FE0B9C
:104FC000F091FF0B9091060C582F5423D9F050818B
:104FD000952B9083E091000CF091010C9081509101
:104FE000070C952B9083E091000CF091010C5081FF
:104FF0009091070C90959523908346952150310907
:10500000E9F6D6CF508190959523E3CFDF91CF91EC
:105010001F910F91FF90EF9008951F93CF93DF930F
:10502000EC018D8D9E8D009721F1162F29A131E085
:105030003093330A2093320A1092310A1092300AC8
:10504000DC01ED91FC910190F081E02D60E019957B
:105050008D8D9E8DDC01ED91FC910190F081E02D14
:10506000612F19958D8D9E8DDF91CF911F910C949D
:105070007126ADA5BEA59C918BA9809589238C93A3
:105080008B8D9C8D892B31F0862FDF91CF911F91D5
:105090000C94871F28E030E080E8A9A5BAA599A95B
:1050A000462F4823C1F04C91942B9C93ABA5BCA5F3
:1050B0009C914AA9942B9C93ABA5BCA54C919AA911
:1050C000909594239C9386952150310931F7DF9177
:1050D000CF911F9108954C9190959423E6CF1F9303
:1050E000CF93DF93EC01162F8D8D9E8D892BB1F11F
:1050F0002DA93EA94FA958AD60E074E284EF90E07D
:105100000E944A3B20513109410951095695479562
:10511000379527952093B80066EA111167EACE010A
:105120000E940D288D8D9E8D892B41F129AD3AADC0
:105130004BAD5CAD60E074E284EF90E00E944A3BCE
:1051400020513109410951095695479537952795C1
:105150002093B800DF91CF911F9108958B8D9C8D86
:10516000892B21F08EAD9FAD0E948E1FEFA5F8A96F
:1051700090818CA9809589238083CECFEFA5F8A953
:1051800080819CA9892B8083E5CF90E080E0089501
:105190001F93CF93DF9381E08093260A11E08091E3
:1051A0005C09811110E010935C09C6E5DBE08B819E
:1051B000882329F01A83612F89810E94441B249639
:1051C0008BE0CA36D80799F7DF91CF911F910895E8
:1051D00091E09093330A90E79093320A1092310A4B
:1051E0001092300A61E070E001C0660F8A95EAF71C
:1051F00089EC9BE00E94422689EC9BE00C9471268E
:10520000CF93DF93EC0161E088810E94441B1986F3
:105210001A861B861C861D861E861F86188A18867F
:105220001F821A8A198ADF91CF910895CF93DF9355
:10523000EC0188819981009711F00E94B13C19829C
:1052400018821D821C821B821A82DF91CF910895E1
:10525000FC0180819181009711F00C94B13C08957C
:105260002091DB0B3091DC0BC901079697FD079667
:1052700023E0959587952A95E1F72091D90B3091F8
:10528000DA0B829FA001839F500D929F500D112435
:1052900070E060E08091F40B9091F50B0C94293E46
:1052A0002F923F924F925F926F927F928F929F9236
:1052B000AF92BF92CF92DF92EF92FF920F931F9324
:1052C000CF93DF93CDB7DEB7C554D1090FB6F894AD
:1052D000DEBF0FBECDBF8C017B01FA01DD24D3946C
:1052E0008081882309F4E0C19F012F5F3F4F2596FD
:1052F0003FAF2EAF2597882E912C87FF55C1818116
:10530000AF014D5F5F4F25965FAF4EAF25979281FE
:1053100026E1E6EFF7E0DE019D9601900D922A95D9
:10532000E1F726E1ECE0F8E0DE01579601900D92FE
:105330002A95E1F726E1E2E2F8E0DE01119601901C
:105340000D922A95E1F7982C88249294B0EF9B2235
:105350009F73892A50E4859FC0011124807C9F702F
:10536000882A992A8CEA981AC4016CE170E00E949C
:10537000363B9C01C82ECB0165E170E00E94363BB4
:10538000482FC4016CE472E00E94363B6F5F4F5FB0
:10539000842F90E0FE01E80FF91F211109C045A5F7
:1053A000613021F0992493946831A9F4912C13C0B1
:1053B0004789613021F0F3E09F2E683111F4A2E0BB
:1053C0009A2EE1E0F0E0EC0FFD1FE80FF91F50818D
:1053D00026965FAF269750E2ECE3F9E011925A95DA
:1053E000E9F770E0F4E14F9F600D711D1124E5E0D5
:1053F000660F771FEA95E1F76C547E4FACE3B9E096
:105400005D0150E040E0FB01E40FF51F8490F501E1
:1054100081925F014F5F5F4F40325105A1F7F6E186
:105420009F9E800D911D112455E0880F991F5A955C
:10543000E1F78C549A4E6CE379E050E040E0FC01D7
:10544000E40FF51FB490FB01A080BA28B192BF0110
:105450004F5F5F4F4032510591F7CC20E1F0269627
:105460004FAD2697FCE14F9F200D311D112445E0E3
:10547000220F331F4A95E1F72C543F4D90E080E016
:10548000F901E80FF91F4491EC91E42BED9301969B
:1054900080329105A9F780E8E4E3FAE011928A9559
:1054A000E9F730E020E02901440C551C440C551C60
:1054B000D901912C812C4FEF5FEFFD0183E0F59531
:1054C000E7958A95E1F7E45CF64F6080712CCA019C
:1054D0008770992702C0759467948A95E2F7F1E086
:1054E0006F227724B20168197909C4010197877086
:1054F00099279D2D01C0990F8A95EAF782E0881AB5
:105500009108F401E770FF278D2D01C0880FEA95FF
:10551000EAF7B12CA12C61147104C9F0FB01F595D7
:10552000E795F595E795F595E795EC5CF54FC08027
:10553000C92AC082FB013196F595E795F595E79567
:10554000F595E795EC5CF54FC080C82AC082605E97
:105550007F4FAA94AB2821F51196415051094F3E37
:10556000FFEF5F0709F0A9CF205F3F4F211541E012
:10557000340709F098CF40E250E0B701C8010E941B
:105580007824005E1F4F013811052CF050E2E50E23
:10559000F11C10E000E02596EEADFFAD2597A0CE02
:1055A000AA24A394B12CB7CF80E4E4E3FAE01192EB
:1055B0008A95E9F7F4E0880C991CFA95E1F79401D3
:1055C00020503040490150E040E0F40121904F016B
:1055D000312C2EEF3FEF67E070E02A01F2E04F1A26
:1055E00051083101062E02C0759467940A94E2F7BF
:1055F00081E068227724D201A21BB30BC901019676
:10560000877099279D2D01C0990F8A95EAF7F901B6
:10561000E770FF278D2D01C0880FEA95EAF7B12CBE
:10562000A12C61147104C9F0FD01F595E795F5957C
:10563000E795F595E795EC5CF54FC080C92AC082E7
:10564000FD013196F595E795F595E795F595E79583
:10565000EC5CF54FC080C82AC0825096AA94AB2853
:10566000F9F461507109225031096F3F760709F052
:10567000B8CF405E5F4F411522E0520709F0A5CF39
:1056800040E150E0B701C8010E947824085E1F4F36
:10569000013811050CF47FCF30E2E30EF11C79CF15
:1056A000AA24A394B12CBDCFCB5BDF4F0FB6F894E7
:1056B000DEBF0FBECDBFDF91CF911F910F91FF9045
:1056C000EF90DF90CF90BF90AF909F908F907F90A2
:1056D0006F905F904F903F902F900895CF93DF93FE
:1056E0002091190C30911A0C62177307A0F49B01DA
:1056F000C091150CD091160CFC0160817181CE0116
:10570000820F931F0E94403E009729F08C1B9D0B37
:10571000DF91CF9108958FEF9FEFFACFFC010190B9
:105720000020E9F73197AF01481B590BBC0184EB0E
:105730009AE00C94FC1B0E941B3EFC01808191812D
:10574000009711F00C94423A60E070E0CB010895AC
:10575000FC0124813581232B39F421E0FB01808178
:10576000882349F020E007C0808191810E94303E6B
:1057700021E0892BB9F7822F08950F931F93CF93C0
:10578000DF93EC0188819981009759F02A813B8150
:105790002617370730F081E0DF91CF911F910F91ED
:1057A00008958B016F5F7F4F0E943A3D009759F03B
:1057B000998388831B830A832C813D81232B59F78E
:1057C000FC011082E8CF80E0E7CFEF92FF920F93C9
:1057D0001F93CF93DF938C017B01EB010990002095
:1057E000E9F72197C61BD70BBE010E94BD2B811183
:1057F00009C0C801DF91CF911F910F91FF90EF90E9
:105800000C941629F801D583C483B7018081918156
:10581000DF91CF911F910F91FF90EF900C94393E43
:10582000BF92CF92DF92EF92FF920F931F93CF938D
:10583000DF93CDB7DEB767970FB6F894DEBF0FBE24
:10584000CDBF7B018A010E94E8280E943029A70170
:1058500070E060E090E080E00E9450291B8A1A8A84
:105860001D8A1C8A1F8A1E8A4AE0BE016F5F7F4F15
:10587000C8010E947E3ABE016F5F7F4FCE01429603
:105880000E94E52B4A895B8960E270E090E080E04D
:105890000E945029CE0142960E94282944EC58E0EB
:1058A00060E270E088E490E00E9450298091F20B61
:1058B0009091F30B892B09F49AC020910A0C309136
:1058C0000B0C40910C0C50910D0C60E074E284EFD5
:1058D00090E00E944A3B20513109410951095695F7
:1058E0004795379527952093B80065E086EF94E3B8
:1058F0000E9458276091D90B615085ED9BE00E9472
:105900000D282091DB0B3091DC0BC901079697FD28
:10591000079633E0959587953A95E1F72091D90B55
:105920003091DA0B829F7001839FF00C929FF00CF4
:1059300011240091F40B1091F50B8091F20B9091D2
:10594000F30BE00EF11E009709F499C02091F60BBD
:1059500031E03093330A2093320A1092310A1092C8
:10596000300ADC01ED91FC910190F081E02D60E4C2
:105970001995CC24C394D12CBB24B3948091F20B01
:105980009091F30BE016F10609F448C0B0E2CB1693
:10599000D104D8F00E9471268091F20B9091F30B04
:1059A0002091F60BB092330A2093320A1092310AFA
:1059B0001092300ADC01ED91FC910190F081E02D14
:1059C00060E41995CC24C394D12C8091F20B909172
:1059D000F30BF80161918F01DC01ED91FC910190D5
:1059E000F081E02D1995BFEFCB1ADB0AC7CF80916C
:1059F000F00B9091F10B892B31F08091130C909169
:105A0000140C0E948E1FE091040CF091050C908103
:105A10008091090C80958923808367CF0E9471262D
:105A20008091F20B9091F30B892B09F46BC02091BC
:105A30000E0C30910F0C4091100C5091110C60E045
:105A400074E284EF90E00E944A3B20513109410901
:105A5000510956954795379527952093B800679635
:105A60000FB6F894DEBF0FBECDBFDF91CF911F916F
:105A70000F91FF90EF90DF90CF90BF900895E0914D
:105A8000020CF091030C80819091080C892B80838B
:105A9000E016F10629F2F80181918F012091F00BB7
:105AA0003091F10B232B19F00E94871FF1CF28E0D2
:105AB00030E040E8E091FE0BF091FF0B9091060C76
:105AC000582F5423D9F05081952B9083E091000CEE
:105AD000F091010C90815091070C952B9083E091EF
